{
  "contractName": "TradingUtility",
  "abi": [
    {
      "inputs": [],
      "stateMutability": "nonpayable",
      "type": "constructor"
    },
    {
      "inputs": [],
      "name": "aaveLendingPool",
      "outputs": [
        {
          "internalType": "contract ILendingPool",
          "name": "",
          "type": "address"
        }
      ],
      "stateMutability": "view",
      "type": "function",
      "constant": true
    },
    {
      "inputs": [],
      "name": "aaveLendingPoolAddress",
      "outputs": [
        {
          "internalType": "address",
          "name": "",
          "type": "address"
        }
      ],
      "stateMutability": "view",
      "type": "function",
      "constant": true
    },
    {
      "inputs": [],
      "name": "uniswapDaiEtherPoolAddress",
      "outputs": [
        {
          "internalType": "address",
          "name": "",
          "type": "address"
        }
      ],
      "stateMutability": "view",
      "type": "function",
      "constant": true
    },
    {
      "inputs": [],
      "name": "uniswapFactoryAddress",
      "outputs": [
        {
          "internalType": "address",
          "name": "",
          "type": "address"
        }
      ],
      "stateMutability": "view",
      "type": "function",
      "constant": true
    },
    {
      "inputs": [],
      "name": "uniswapRouter",
      "outputs": [
        {
          "internalType": "contract IUniswapV2Router01",
          "name": "",
          "type": "address"
        }
      ],
      "stateMutability": "view",
      "type": "function",
      "constant": true
    },
    {
      "inputs": [],
      "name": "uniswapRouterAddress",
      "outputs": [
        {
          "internalType": "address",
          "name": "",
          "type": "address"
        }
      ],
      "stateMutability": "view",
      "type": "function",
      "constant": true
    },
    {
      "inputs": [
        {
          "internalType": "uint256",
          "name": "amountA",
          "type": "uint256"
        },
        {
          "internalType": "address",
          "name": "tokenA",
          "type": "address"
        },
        {
          "internalType": "address",
          "name": "tokenB",
          "type": "address"
        }
      ],
      "name": "quote",
      "outputs": [
        {
          "internalType": "uint256",
          "name": "amountB",
          "type": "uint256"
        }
      ],
      "stateMutability": "view",
      "type": "function",
      "constant": true
    },
    {
      "inputs": [
        {
          "internalType": "address",
          "name": "asset",
          "type": "address"
        },
        {
          "internalType": "uint256",
          "name": "amount",
          "type": "uint256"
        }
      ],
      "name": "depositToAave",
      "outputs": [],
      "stateMutability": "nonpayable",
      "type": "function"
    },
    {
      "inputs": [
        {
          "internalType": "address",
          "name": "asset",
          "type": "address"
        },
        {
          "internalType": "uint256",
          "name": "amount",
          "type": "uint256"
        }
      ],
      "name": "provideLiquidityUniswap",
      "outputs": [],
      "stateMutability": "payable",
      "type": "function",
      "payable": true
    },
    {
      "inputs": [
        {
          "internalType": "address",
          "name": "asset",
          "type": "address"
        },
        {
          "internalType": "uint256",
          "name": "amount",
          "type": "uint256"
        }
      ],
      "name": "removeLiquidityUniswap",
      "outputs": [],
      "stateMutability": "payable",
      "type": "function",
      "payable": true
    }
  ],
  "bytecode": "0x60c060405234801561001057600080fd5b5073e0fba4fc209b4948668006b2be61711b7f465bae73ffffffffffffffffffffffffffffffffffffffff1660808173ffffffffffffffffffffffffffffffffffffffff1660601b81525050737a250d5630b4cf539739df2c5dacb4c659f2488d6000806101000a81548173ffffffffffffffffffffffffffffffffffffffff021916908373ffffffffffffffffffffffffffffffffffffffff16021790555060008054906101000a900473ffffffffffffffffffffffffffffffffffffffff1673ffffffffffffffffffffffffffffffffffffffff1663c45a01556040518163ffffffff1660e01b815260040160206040518083038186803b15801561011657600080fd5b505afa15801561012a573d6000803e3d6000fd5b505050506040513d602081101561014057600080fd5b810190808051906020019092919050505073ffffffffffffffffffffffffffffffffffffffff1660a08173ffffffffffffffffffffffffffffffffffffffff1660601b8152505060805160601c60a05160601c6110286101c4600039806103bc528061062c5250806103e052806107ab5280610897528061097c52506110286000f3fe6080604052600436106100915760003560e01c8063b11173fc11610059578063b11173fc14610236578063b5013eb314610277578063e912f5a3146102c5578063e9d337b814610306578063eeb149e71461034757610091565b806320ca3c7f146100965780633655ac3c146100d75780635058d4d414610118578063735de9f71461016657806380ee43f5146101a7575b600080fd5b3480156100a257600080fd5b506100ab6103a2565b604051808273ffffffffffffffffffffffffffffffffffffffff16815260200191505060405180910390f35b3480156100e357600080fd5b506100ec6103ba565b604051808273ffffffffffffffffffffffffffffffffffffffff16815260200191505060405180910390f35b6101646004803603604081101561012e57600080fd5b81019080803573ffffffffffffffffffffffffffffffffffffffff169060200190929190803590602001909291905050506103de565b005b34801561017257600080fd5b5061017b6105fe565b604051808273ffffffffffffffffffffffffffffffffffffffff16815260200191505060405180910390f35b3480156101b357600080fd5b50610220600480360360608110156101ca57600080fd5b8101908080359060200190929190803573ffffffffffffffffffffffffffffffffffffffff169060200190929190803573ffffffffffffffffffffffffffffffffffffffff169060200190929190505050610622565b6040518082815260200191505060405180910390f35b34801561024257600080fd5b5061024b61066c565b604051808273ffffffffffffffffffffffffffffffffffffffff16815260200191505060405180910390f35b6102c36004803603604081101561028d57600080fd5b81019080803573ffffffffffffffffffffffffffffffffffffffff16906020019092919080359060200190929190505050610684565b005b3480156102d157600080fd5b506102da61087d565b604051808273ffffffffffffffffffffffffffffffffffffffff16815260200191505060405180910390f35b34801561031257600080fd5b5061031b610895565b604051808273ffffffffffffffffffffffffffffffffffffffff16815260200191505060405180910390f35b34801561035357600080fd5b506103a06004803603604081101561036a57600080fd5b81019080803573ffffffffffffffffffffffffffffffffffffffff169060200190929190803590602001909291905050506108b9565b005b737a250d5630b4cf539739df2c5dacb4c659f2488d81565b7f000000000000000000000000000000000000000000000000000000000000000081565b7f000000000000000000000000000000000000000000000000000000000000000073ffffffffffffffffffffffffffffffffffffffff166369328dec8383336040518463ffffffff1660e01b8152600401808473ffffffffffffffffffffffffffffffffffffffff1681526020018381526020018273ffffffffffffffffffffffffffffffffffffffff1681526020019350505050602060405180830381600087803b15801561048d57600080fd5b505af11580156104a1573d6000803e3d6000fd5b505050506040513d60208110156104b757600080fd5b81019080805190602001909291905050505060008054906101000a900473ffffffffffffffffffffffffffffffffffffffff1673ffffffffffffffffffffffffffffffffffffffff1663f305d71973bbb8eea618861940fadef3071e79458d4c2b42e38384343363671c2a826040518763ffffffff1660e01b8152600401808773ffffffffffffffffffffffffffffffffffffffff1681526020018681526020018581526020018481526020018373ffffffffffffffffffffffffffffffffffffffff1681526020018281526020019650505050505050606060405180830381600087803b1580156105a857600080fd5b505af11580156105bc573d6000803e3d6000fd5b505050506040513d60608110156105d257600080fd5b810190808051906020019092919080519060200190929190805190602001909291905050505050505050565b60008054906101000a900473ffffffffffffffffffffffffffffffffffffffff1681565b60008060006106527f00000000000000000000000000000000000000000000000000000000000000008686610a4e565b91509150610661868383610b77565b925050509392505050565b73e0fba4fc209b4948668006b2be61711b7f465bae81565b60008054906101000a900473ffffffffffffffffffffffffffffffffffffffff1673ffffffffffffffffffffffffffffffffffffffff166302751cec73bbb8eea618861940fadef3071e79458d4c2b42e38384343363671c2a826040518763ffffffff1660e01b8152600401808773ffffffffffffffffffffffffffffffffffffffff1681526020018681526020018581526020018481526020018373ffffffffffffffffffffffffffffffffffffffff16815260200182815260200196505050505050506040805180830381600087803b15801561076257600080fd5b505af1158015610776573d6000803e3d6000fd5b505050506040513d604081101561078c57600080fd5b81019080805190602001909291908051906020019092919050505050507f000000000000000000000000000000000000000000000000000000000000000073ffffffffffffffffffffffffffffffffffffffff1663e8eda9df83833360006040518563ffffffff1660e01b8152600401808573ffffffffffffffffffffffffffffffffffffffff1681526020018481526020018373ffffffffffffffffffffffffffffffffffffffff168152602001828152602001945050505050600060405180830381600087803b15801561086157600080fd5b505af1158015610875573d6000803e3d6000fd5b505050505050565b73bbb8eea618861940fadef3071e79458d4c2b42e381565b7f000000000000000000000000000000000000000000000000000000000000000081565b8173ffffffffffffffffffffffffffffffffffffffff1663095ea7b373e0fba4fc209b4948668006b2be61711b7f465bae836040518363ffffffff1660e01b8152600401808373ffffffffffffffffffffffffffffffffffffffff16815260200182815260200192505050602060405180830381600087803b15801561093e57600080fd5b505af1158015610952573d6000803e3d6000fd5b505050506040513d602081101561096857600080fd5b8101908080519060200190929190505050507f000000000000000000000000000000000000000000000000000000000000000073ffffffffffffffffffffffffffffffffffffffff1663e8eda9df83833360006040518563ffffffff1660e01b8152600401808573ffffffffffffffffffffffffffffffffffffffff1681526020018481526020018373ffffffffffffffffffffffffffffffffffffffff168152602001828152602001945050505050600060405180830381600087803b158015610a3257600080fd5b505af1158015610a46573d6000803e3d6000fd5b505050505050565b6000806000610a5d8585610c5b565b509050600080610a6e888888610dd2565b73ffffffffffffffffffffffffffffffffffffffff16630902f1ac6040518163ffffffff1660e01b815260040160606040518083038186803b158015610ab357600080fd5b505afa158015610ac7573d6000803e3d6000fd5b505050506040513d6060811015610add57600080fd5b81019080805190602001909291908051906020019092919080519060200190929190505050506dffffffffffffffffffffffffffff1691506dffffffffffffffffffffffffffff1691508273ffffffffffffffffffffffffffffffffffffffff168773ffffffffffffffffffffffffffffffffffffffff1614610b61578082610b64565b81815b8095508196505050505050935093915050565b6000808411610bd1576040517f08c379a0000000000000000000000000000000000000000000000000000000008152600401808060200182810382526025815260200180610fce6025913960400191505060405180910390fd5b600083118015610be15750600082115b610c36576040517f08c379a0000000000000000000000000000000000000000000000000000000008152600401808060200182810382526028815260200180610fa66028913960400191505060405180910390fd5b82610c4a8386610eeb90919063ffffffff16565b81610c5157fe5b0490509392505050565b6000808273ffffffffffffffffffffffffffffffffffffffff168473ffffffffffffffffffffffffffffffffffffffff161415610ce3576040517f08c379a0000000000000000000000000000000000000000000000000000000008152600401808060200182810382526025815260200180610f816025913960400191505060405180910390fd5b8273ffffffffffffffffffffffffffffffffffffffff168473ffffffffffffffffffffffffffffffffffffffff1610610d1d578284610d20565b83835b8092508193505050600073ffffffffffffffffffffffffffffffffffffffff168273ffffffffffffffffffffffffffffffffffffffff161415610dcb576040517f08c379a000000000000000000000000000000000000000000000000000000000815260040180806020018281038252601e8152602001807f556e697377617056324c6962726172793a205a45524f5f41444452455353000081525060200191505060405180910390fd5b9250929050565b6000806000610de18585610c5b565b91509150858282604051602001808373ffffffffffffffffffffffffffffffffffffffff1660601b81526014018273ffffffffffffffffffffffffffffffffffffffff1660601b8152601401925050506040516020818303038152906040528051906020012060405160200180807fff000000000000000000000000000000000000000000000000000000000000008152506001018373ffffffffffffffffffffffffffffffffffffffff1660601b8152601401828152602001807f96e8ac4277198ff8b6f785478aa9a39f403cb768dd02cbee326c3e7da348845f815250602001925050506040516020818303038152906040528051906020012060001c925050509392505050565b600080821480610f085750828283850292508281610f0557fe5b04145b610f7a576040517f08c379a00000000000000000000000000000000000000000000000000000000081526004018080602001828103825260148152602001807f64732d6d6174682d6d756c2d6f766572666c6f7700000000000000000000000081525060200191505060405180910390fd5b9291505056fe556e697377617056324c6962726172793a204944454e544943414c5f414444524553534553556e697377617056324c6962726172793a20494e53554646494349454e545f4c4951554944495459556e697377617056324c6962726172793a20494e53554646494349454e545f414d4f554e54a26469706673582212203103aeda8976fd2186f1937b55636e9fe12ff161b83a96f0e2a669dbf03ab96e64736f6c634300060c0033",
  "immutableReferences": {
    "1762": [
      {
        "length": 32,
        "start": 992
      },
      {
        "length": 32,
        "start": 1963
      },
      {
        "length": 32,
        "start": 2199
      },
      {
        "length": 32,
        "start": 2428
      }
    ],
    "1766": [
      {
        "length": 32,
        "start": 956
      },
      {
        "length": 32,
        "start": 1580
      }
    ]
  },
  "source": "// SPDX-License-Identifier: MIT\npragma solidity ^0.6.6;\nimport {ILendingPool} from \"@aave/protocol-v2/contracts/interfaces/ILendingPool.sol\";\nimport {IUniswapV2Router01} from \"@uniswap/v2-periphery/contracts/interfaces/IUniswapV2Router01.sol\";\nimport {UniswapV2Library} from \"@uniswap/v2-periphery/contracts/libraries/UniswapV2Library.sol\";\nimport {IERC20} from \"@openzeppelin/contracts/interfaces/IERC20.sol\";\n\ncontract TradingUtility {\n  address constant public aaveLendingPoolAddress = 0xE0fBa4Fc209b4948668006B2bE61711b7f465bAe;\n  address constant public uniswapRouterAddress = 0x7a250d5630B4cF539739dF2C5dAcb4c659F2488D;\n  address constant public uniswapDaiEtherPoolAddress = 0xBbB8eeA618861940FaDEf3071e79458d4c2B42e3;\n  ILendingPool immutable public aaveLendingPool;\n  IUniswapV2Router01 public uniswapRouter;\n  address immutable public uniswapFactoryAddress;\n\n  constructor() public {\n    aaveLendingPool = ILendingPool(aaveLendingPoolAddress);\n    uniswapRouter = IUniswapV2Router01(uniswapRouterAddress);\n    uniswapFactoryAddress = uniswapRouter.factory();\n  }\n\n  function quote(uint amountA, address tokenA, address tokenB) external view returns (uint amountB) {\n    (uint reserveA, uint reserveB) = UniswapV2Library.getReserves(uniswapFactoryAddress, tokenA, tokenB);\n    amountB = UniswapV2Library.quote(amountA, reserveA, reserveB);\n  }\n\n  function depositToAave(address asset, uint256 amount) external {\n    IERC20(asset).approve(aaveLendingPoolAddress, amount);\n    aaveLendingPool.deposit(asset, amount, msg.sender, 0);\n  }\n\n  function provideLiquidityUniswap(address asset, uint256 amount) external payable {\n    aaveLendingPool.withdraw(asset, amount, msg.sender);\n    uniswapRouter.addLiquidityETH(uniswapDaiEtherPoolAddress, amount, amount, msg.value, msg.sender, 1729899138);\n  }\n\n  function removeLiquidityUniswap(address asset, uint256 amount) external payable {\n    uniswapRouter.removeLiquidityETH(uniswapDaiEtherPoolAddress, amount, amount, msg.value, msg.sender, 1729899138);\n    aaveLendingPool.deposit(asset, amount, msg.sender, 0);\n  }\n}\n",
  "sourcePath": "/home/kevin/work_test/Defi-Trading/contracts/TradingUtility.sol",
  "compiler": {
    "name": "solc",
    "version": "0.6.12+commit.27d51765.Emscripten.clang"
  },
  "schemaVersion": "3.4.3",
  "updatedAt": "2021-08-27T15:52:35.266Z",
  "networkType": "ethereum",
  "devdoc": {
    "kind": "dev",
    "methods": {},
    "version": 1
  },
  "userdoc": {
    "kind": "user",
    "methods": {},
    "version": 1
  }
}